{
  "contractName": "Streams",
  "abi": [
    {
      "constant": true,
      "inputs": [
        {
          "name": "",
          "type": "uint256"
        }
      ],
      "name": "streams",
      "outputs": [
        {
          "name": "mentorId",
          "type": "uint256"
        },
        {
          "name": "menteeId",
          "type": "uint256"
        },
        {
          "name": "requestId",
          "type": "uint256"
        },
        {
          "name": "pricePerHour",
          "type": "uint256"
        },
        {
          "name": "maxTimeLimit",
          "type": "uint256"
        },
        {
          "name": "withdrawTime",
          "type": "uint256"
        },
        {
          "name": "isCompleted",
          "type": "bool"
        }
      ],
      "payable": false,
      "stateMutability": "view",
      "type": "function"
    },
    {
      "constant": true,
      "inputs": [],
      "name": "skillRequestId",
      "outputs": [
        {
          "name": "",
          "type": "uint256"
        }
      ],
      "payable": false,
      "stateMutability": "view",
      "type": "function"
    },
    {
      "constant": true,
      "inputs": [
        {
          "name": "",
          "type": "uint256"
        }
      ],
      "name": "skillRequests",
      "outputs": [
        {
          "name": "skill",
          "type": "string"
        },
        {
          "name": "description",
          "type": "string"
        },
        {
          "name": "pricePerHour",
          "type": "uint256"
        },
        {
          "name": "maxTimeLimit",
          "type": "uint256"
        },
        {
          "name": "creatorId",
          "type": "uint256"
        }
      ],
      "payable": false,
      "stateMutability": "view",
      "type": "function"
    },
    {
      "constant": true,
      "inputs": [
        {
          "name": "",
          "type": "uint256"
        }
      ],
      "name": "people",
      "outputs": [
        {
          "name": "personAddress",
          "type": "address"
        },
        {
          "name": "name",
          "type": "string"
        },
        {
          "name": "rating",
          "type": "uint8"
        }
      ],
      "payable": false,
      "stateMutability": "view",
      "type": "function"
    },
    {
      "constant": true,
      "inputs": [],
      "name": "balance",
      "outputs": [
        {
          "name": "",
          "type": "uint256"
        }
      ],
      "payable": false,
      "stateMutability": "view",
      "type": "function"
    },
    {
      "constant": true,
      "inputs": [],
      "name": "uuid",
      "outputs": [
        {
          "name": "",
          "type": "uint256"
        }
      ],
      "payable": false,
      "stateMutability": "view",
      "type": "function"
    },
    {
      "constant": true,
      "inputs": [],
      "name": "streamId",
      "outputs": [
        {
          "name": "",
          "type": "uint256"
        }
      ],
      "payable": false,
      "stateMutability": "view",
      "type": "function"
    },
    {
      "payable": true,
      "stateMutability": "payable",
      "type": "fallback"
    },
    {
      "anonymous": false,
      "inputs": [
        {
          "indexed": true,
          "name": "bountyId",
          "type": "uint256"
        }
      ],
      "name": "NewSkillRequest",
      "type": "event"
    },
    {
      "anonymous": false,
      "inputs": [
        {
          "indexed": true,
          "name": "personId",
          "type": "uint256"
        }
      ],
      "name": "NewPerson",
      "type": "event"
    },
    {
      "anonymous": false,
      "inputs": [
        {
          "indexed": true,
          "name": "newStreamId",
          "type": "uint256"
        }
      ],
      "name": "NewStream",
      "type": "event"
    },
    {
      "constant": false,
      "inputs": [
        {
          "name": "_name",
          "type": "string"
        },
        {
          "name": "_skill1",
          "type": "string"
        },
        {
          "name": "_skill2",
          "type": "string"
        },
        {
          "name": "_skill3",
          "type": "string"
        }
      ],
      "name": "createNewPerson",
      "outputs": [],
      "payable": false,
      "stateMutability": "nonpayable",
      "type": "function"
    },
    {
      "constant": false,
      "inputs": [
        {
          "name": "_skill",
          "type": "string"
        },
        {
          "name": "_description",
          "type": "string"
        },
        {
          "name": "_pricePerHour",
          "type": "uint256"
        },
        {
          "name": "_maxTimeLimit",
          "type": "uint256"
        },
        {
          "name": "_creatorId",
          "type": "uint256"
        }
      ],
      "name": "createSkillRequest",
      "outputs": [],
      "payable": true,
      "stateMutability": "payable",
      "type": "function"
    },
    {
      "constant": false,
      "inputs": [
        {
          "name": "_skillRequestId",
          "type": "uint256"
        },
        {
          "name": "_mentorId",
          "type": "uint256"
        }
      ],
      "name": "acceptSkillRequest",
      "outputs": [],
      "payable": false,
      "stateMutability": "nonpayable",
      "type": "function"
    },
    {
      "constant": false,
      "inputs": [
        {
          "name": "_streamId",
          "type": "uint256"
        }
      ],
      "name": "completeStream",
      "outputs": [],
      "payable": false,
      "stateMutability": "nonpayable",
      "type": "function"
    },
    {
      "constant": false,
      "inputs": [
        {
          "name": "_streamId",
          "type": "uint256"
        }
      ],
      "name": "completeStreamWithCollateralPayout",
      "outputs": [],
      "payable": false,
      "stateMutability": "nonpayable",
      "type": "function"
    },
    {
      "constant": false,
      "inputs": [
        {
          "name": "target",
          "type": "address"
        }
      ],
      "name": "faucet",
      "outputs": [],
      "payable": false,
      "stateMutability": "nonpayable",
      "type": "function"
    }
  ],
  "bytecode": "0x608060405234801561001057600080fd5b5061166f806100206000396000f3fe6080604052600436106100c25760003560e01c80639e7a13ad1161007f578063bb07e85d11610059578063bb07e85d14610714578063bb3e47e61461073f578063c43e98da146108af578063f4408e4b146108f4576100c2565b80639e7a13ad146105a4578063b69ef8a814610698578063b86d1d63146106c3576100c2565b806305173f6f146100c45780630f3e317114610351578063241928b41461038c57806364d60d91146103c7578063702a971b1461044457806374b5bf8e1461046f575b005b3480156100d057600080fd5b5061034f600480360360808110156100e757600080fd5b810190808035906020019064010000000081111561010457600080fd5b82018360208201111561011657600080fd5b8035906020019184600183028401116401000000008311171561013857600080fd5b91908080601f016020809104026020016040519081016040528093929190818152602001838380828437600081840152601f19601f8201169050808301925050505050505091929192908035906020019064010000000081111561019b57600080fd5b8201836020820111156101ad57600080fd5b803590602001918460018302840111640100000000831117156101cf57600080fd5b91908080601f016020809104026020016040519081016040528093929190818152602001838380828437600081840152601f19601f8201169050808301925050505050505091929192908035906020019064010000000081111561023257600080fd5b82018360208201111561024457600080fd5b8035906020019184600183028401116401000000008311171561026657600080fd5b91908080601f016020809104026020016040519081016040528093929190818152602001838380828437600081840152601f19601f820116905080830192505050505050509192919290803590602001906401000000008111156102c957600080fd5b8201836020820111156102db57600080fd5b803590602001918460018302840111640100000000831117156102fd57600080fd5b91908080601f016020809104026020016040519081016040528093929190818152602001838380828437600081840152601f19601f82011690508083019250505050505050919291929050505061091f565b005b34801561035d57600080fd5b5061038a6004803603602081101561037457600080fd5b8101908080359060200190929190505050610aef565b005b34801561039857600080fd5b506103c5600480360360208110156103af57600080fd5b8101908080359060200190929190505050610cc9565b005b3480156103d357600080fd5b50610400600480360360208110156103ea57600080fd5b8101908080359060200190929190505050610e0c565b604051808881526020018781526020018681526020018581526020018481526020018381526020018215151515815260200197505050505050505060405180910390f35b34801561045057600080fd5b50610459610e5b565b6040518082815260200191505060405180910390f35b34801561047b57600080fd5b506104a86004803603602081101561049257600080fd5b8101908080359060200190929190505050610e61565b604051808060200180602001868152602001858152602001848152602001838103835288818151815260200191508051906020019080838360005b838110156104fe5780820151818401526020810190506104e3565b50505050905090810190601f16801561052b5780820380516001836020036101000a031916815260200191505b50838103825287818151815260200191508051906020019080838360005b83811015610564578082015181840152602081019050610549565b50505050905090810190601f1680156105915780820380516001836020036101000a031916815260200191505b5097505050505050505060405180910390f35b3480156105b057600080fd5b506105dd600480360360208110156105c757600080fd5b8101908080359060200190929190505050610fc7565b604051808473ffffffffffffffffffffffffffffffffffffffff1673ffffffffffffffffffffffffffffffffffffffff168152602001806020018360ff1660ff168152602001828103825284818151815260200191508051906020019080838360005b8381101561065b578082015181840152602081019050610640565b50505050905090810190601f1680156106885780820380516001836020036101000a031916815260200191505b5094505050505060405180910390f35b3480156106a457600080fd5b506106ad6110b6565b6040518082815260200191505060405180910390f35b3480156106cf57600080fd5b50610712600480360360208110156106e657600080fd5b81019080803573ffffffffffffffffffffffffffffffffffffffff1690602001909291905050506110bc565b005b34801561072057600080fd5b5061072961112c565b6040518082815260200191505060405180910390f35b6108ad600480360360a081101561075557600080fd5b810190808035906020019064010000000081111561077257600080fd5b82018360208201111561078457600080fd5b803590602001918460018302840111640100000000831117156107a657600080fd5b91908080601f016020809104026020016040519081016040528093929190818152602001838380828437600081840152601f19601f8201169050808301925050505050505091929192908035906020019064010000000081111561080957600080fd5b82018360208201111561081b57600080fd5b8035906020019184600183028401116401000000008311171561083d57600080fd5b91908080601f016020809104026020016040519081016040528093929190818152602001838380828437600081840152601f19601f820116905080830192505050505050509192919290803590602001909291908035906020019092919080359060200190929190505050611132565b005b3480156108bb57600080fd5b506108f2600480360360408110156108d257600080fd5b81019080803590602001909291908035906020019092919050505061128f565b005b34801561090057600080fd5b506109096113c2565b6040518082815260200191505060405180910390f35b6109276113c8565b60405180608001604052803373ffffffffffffffffffffffffffffffffffffffff168152602001868152602001600360405190808252806020026020018201604052801561098957816020015b60608152602001906001900390816109745790505b508152602001600360ff1681525090508381604001516000815181106109ab57fe5b60200260200101819052508281604001516001815181106109c857fe5b60200260200101819052508181604001516002815181106109e557fe5b60200260200101819052508060026000600154815260200190815260200160002060008201518160000160006101000a81548173ffffffffffffffffffffffffffffffffffffffff021916908373ffffffffffffffffffffffffffffffffffffffff1602179055506020820151816001019080519060200190610a69929190611409565b506040820151816002019080519060200190610a86929190611489565b5060608201518160030160006101000a81548160ff021916908360ff16021790555090505060016000815480929190600101919050557f9a6f8cf2a41cba94986f43297806a0ff19da70cea144dabf9dd846b86dfa74e860405160405180910390a25050505050565b600060066000838152602001908152602001600020905042816005015410610b62576040517f08c379a00000000000000000000000000000000000000000000000000000000081526004018080602001828103825260228152602001806115f16022913960400191505060405180910390fd5b60016006600084815260200190815260200160002060060160006101000a81548160ff02191690831515021790555060008160000154905060008260010154905060006002600084815260200190815260200160002060000160009054906101000a900473ffffffffffffffffffffffffffffffffffffffff16905060006002600084815260200190815260200160002060000160009054906101000a900473ffffffffffffffffffffffffffffffffffffffff1690506000856003015486600401540290508273ffffffffffffffffffffffffffffffffffffffff166108fc829081150290604051600060405180830381858888f19350505050158015610c6e573d6000803e3d6000fd5b508173ffffffffffffffffffffffffffffffffffffffff166108fc60028381610c9357fe5b049081150290604051600060405180830381858888f19350505050158015610cbf573d6000803e3d6000fd5b5050505050505050565b600060066000838152602001908152602001600020905042816005015410610d3c576040517f08c379a00000000000000000000000000000000000000000000000000000000081526004018080602001828103825260228152602001806115f16022913960400191505060405180910390fd5b60016006600084815260200190815260200160002060060160006101000a81548160ff02191690831515021790555060008160000154905060006002600083815260200190815260200160002060000160009054906101000a900473ffffffffffffffffffffffffffffffffffffffff1690506000836003015484600401540290508173ffffffffffffffffffffffffffffffffffffffff166108fc829081150290604051600060405180830381858888f19350505050158015610e04573d6000803e3d6000fd5b505050505050565b60066020528060005260406000206000915090508060000154908060010154908060020154908060030154908060040154908060050154908060060160009054906101000a900460ff16905087565b60035481565b6004602052806000526040600020600091509050806000018054600181600116156101000203166002900480601f016020809104026020016040519081016040528092919081815260200182805460018160011615610100020316600290048015610f0d5780601f10610ee257610100808354040283529160200191610f0d565b820191906000526020600020905b815481529060010190602001808311610ef057829003601f168201915b505050505090806001018054600181600116156101000203166002900480601f016020809104026020016040519081016040528092919081815260200182805460018160011615610100020316600290048015610fab5780601f10610f8057610100808354040283529160200191610fab565b820191906000526020600020905b815481529060010190602001808311610f8e57829003601f168201915b5050505050908060020154908060030154908060040154905085565b60026020528060005260406000206000915090508060000160009054906101000a900473ffffffffffffffffffffffffffffffffffffffff1690806001018054600181600116156101000203166002900480601f0160208091040260200160405190810160405280929190818152602001828054600181600116156101000203166002900480156110995780601f1061106e57610100808354040283529160200191611099565b820191906000526020600020905b81548152906001019060200180831161107c57829003601f168201915b5050505050908060030160009054906101000a900460ff16905083565b60005481565b3073ffffffffffffffffffffffffffffffffffffffff16316000819055508073ffffffffffffffffffffffffffffffffffffffff166108fc678ac7230489e800009081150290604051600060405180830381858888f19350505050158015611128573d6000803e3d6000fd5b5050565b60015481565b6000828402905060006064826033028161114857fe5b0482019050803410156111a6576040517f08c379a00000000000000000000000000000000000000000000000000000000081526004018080602001828103825260318152602001806116136031913960400191505060405180910390fd5b6111ae6114e9565b6040518060a00160405280898152602001888152602001878152602001868152602001858152509050806004600060035481526020019081526020016000206000820151816000019080519060200190611209929190611409565b506020820151816001019080519060200190611226929190611409565b5060408201518160020155606082015181600301556080820151816004015590505060036000815480929190600101919050557f491ac035c198a1d7ed99c004eaf061f1098e73ac77e28ceb404fa12b9f69e2b360405160405180910390a25050505050505050565b60006004600084815260200190815260200160002090506000816004015490506000826002015490506000836003015490506112c9611518565b6040518060e00160405280878152602001858152602001888152602001848152602001838152602001610e1084024201815260200160001515815250905080600660006005548152602001908152602001600020600082015181600001556020820151816001015560408201518160020155606082015181600301556080820151816004015560a0820151816005015560c08201518160060160006101000a81548160ff02191690831515021790555090505060056000815480929190600101919050557fcc574989141aace13d3c0735bdabcb47effa3bbf4e95381d87a7d0b9eb71105e60405160405180910390a250505050505050565b60055481565b6040518060800160405280600073ffffffffffffffffffffffffffffffffffffffff1681526020016060815260200160608152602001600060ff1681525090565b828054600181600116156101000203166002900490600052602060002090601f016020900481019282601f1061144a57805160ff1916838001178555611478565b82800160010185558215611478579182015b8281111561147757825182559160200191906001019061145c565b5b5090506114859190611557565b5090565b8280548282559060005260206000209081019282156114d8579160200282015b828111156114d75782518290805190602001906114c7929190611409565b50916020019190600101906114a9565b5b5090506114e5919061157c565b5090565b6040518060a0016040528060608152602001606081526020016000815260200160008152602001600081525090565b6040518060e001604052806000815260200160008152602001600081526020016000815260200160008152602001600081526020016000151581525090565b61157991905b8082111561157557600081600090555060010161155d565b5090565b90565b6115a591905b808211156115a1576000818161159891906115a8565b50600101611582565b5090565b90565b50805460018160011615610100020316600290046000825580601f106115ce57506115ed565b601f0160209004906000526020600020908101906115ec9190611557565b5b5056fe43616e6e6f74207769746864726177206265666f72652073747265616d20656e6473506c6561736520636865636b2069662073756666696369656e742066756e647320617265206265696e67206c6f636b6564a165627a7a7230582073c963b97cfc1a494ed22a89e19846e6935810ffa972268482f5b033feda8bfc0029",
  "source": "pragma solidity >= 0.5.0;\n\ncontract Streams {\n    uint256 public balance;\n\n    //unique user id\n    uint256 public uuid;\n\n    //mapping of uuid to Person object\n    mapping(uint256 => Person) public people;\n\n    //struct representing a Person object\n    struct Person {\n        address payable personAddress;\n        string name;\n        string[] skills;\n        uint8 rating;\n    }\n\n    //unique skill request id\n    uint256 public skillRequestId;\n\n    //mapping of skillRequestId to SkillRequest object\n    mapping(uint256 => SkillRequest) public skillRequests;\n\n    // ! TODO rename to MentorRequest\n    //a bounty created by a consumer on the platform\n    struct SkillRequest {\n        string skill;\n        string description;\n        uint256 pricePerHour;\n        uint256 maxTimeLimit;\n        uint256 creatorId;\n    }\n\n    // unique stream ids\n    uint256 public streamId;\n\n    // mapping of streamId to Stream object\n    mapping(uint256 => Stream) public streams;\n\n    /**\n    People in theory won't be able to misuse the platform cuz ETH is never credited back to them. So a mentee with malicious intent has no benefit from withholding completion\n     */\n\n    //struct representing a Stream on the platform\n    struct Stream {\n        uint256 mentorId;\n        uint256 menteeId;\n        uint256 requestId;\n        uint256 pricePerHour;\n        uint256 maxTimeLimit;\n        uint256 withdrawTime;\n        bool isCompleted;\n    }\n\n    //event emitted when a new skill request is made\n    event NewSkillRequest (\n        uint256 indexed bountyId\n    );\n\n    event NewPerson (\n        uint256 indexed personId\n    );\n\n    event NewStream (\n        uint256 indexed newStreamId\n    );\n\n    // ! TODO augment to integrate skills\n    function createNewPerson(string memory _name, string memory _skill1, string memory _skill2, string memory _skill3) public {\n        Person memory newPerson = Person({\n            personAddress: msg.sender,\n            name: _name,\n            skills: new string[](3),\n            rating: uint8(3)\n        });\n\n        newPerson.skills[0] = _skill1;\n        newPerson.skills[1] = _skill2;\n        newPerson.skills[2] = _skill3;\n\n        people[uuid] = newPerson;\n\n        emit NewPerson(uuid++);\n    }\n\n    //function for creating a skill request on the network\n    function createSkillRequest(string memory _skill, string memory _description, uint256 _pricePerHour, uint256 _maxTimeLimit, uint256 _creatorId) public payable {\n\n        //verify that requester has enough eth\n        uint256 cost = _pricePerHour * _maxTimeLimit;\n        // ! TODO see if you can optimise this computation or get it off the chain\n        // uint256 minValue = cost + (( 100 * cost ) / 1000);\n        uint256 minValue = cost + ((51 * cost) / 100);\n        require(\n            // our cut - 1%, collateral - 50%\n            msg.value >= minValue,\n            \"Please check if sufficient funds are being locked\"\n        );\n\n        //creating a bounty object\n        SkillRequest memory skillRequest = SkillRequest({\n            skill: _skill,\n            description: _description,\n            pricePerHour: _pricePerHour,\n            maxTimeLimit: _maxTimeLimit,\n            creatorId: _creatorId\n        });\n\n        //persist Bounty to the blockchain\n        skillRequests[skillRequestId] = skillRequest;\n\n        //emit an event to notify the clients\n        emit NewSkillRequest(skillRequestId++);\n    }\n\n    //function for accepting a bounty on the network\n    function acceptSkillRequest(uint256 _skillRequestId, uint256 _mentorId) public {\n        //retreiving skill request object from the blockchain\n        SkillRequest storage skillRequest = skillRequests[_skillRequestId];\n        uint256 _menteeId = skillRequest.creatorId;\n\n        uint256 _pricePerHour = skillRequest.pricePerHour;\n        uint256 _maxTimeLimit = skillRequest.maxTimeLimit;\n\n        Stream memory newStream = Stream({\n            mentorId: _mentorId,\n            menteeId: _menteeId,\n            requestId: _skillRequestId,\n            pricePerHour: _pricePerHour,\n            maxTimeLimit: _maxTimeLimit,\n            // set the time after which the withdrawal of the fees is valid\n            // ! TODO Uncomment this\n            withdrawTime: now + _maxTimeLimit * 3600,\n            //withdrawTime: now + _maxTimeLimit * 2,\n            isCompleted: false\n        });\n\n        // persist stream to blockchain\n        streams[streamId] = newStream;\n\n        emit NewStream(streamId++);\n    }\n\n    function completeStream(uint256 _streamId) public {\n        // make sure that enough time has passed before the funds are debited\n        Stream storage stream = streams[_streamId];\n        require(\n            // the time NOW should occur AFTER the withdrawTime\n            stream.withdrawTime < now,\n            \"Cannot withdraw before stream ends\"\n        );\n        // ! TODO unomment this code\n        // make sure that his hasn't been marked as completed before\n        // require(\n        //     stream.isCompleted == false,\n        //     \"This transaction has already been completed\"\n        // );\n        streams[_streamId].isCompleted = true;\n        uint256 _mentorId = stream.mentorId;\n        address payable _mentorAddress = people[_mentorId].personAddress;\n\n        uint256 cost = stream.maxTimeLimit * stream.pricePerHour;\n\n        _mentorAddress.transfer(cost);\n    }\n\n    function completeStreamWithCollateralPayout(uint256 _streamId) public {\n        Stream storage stream = streams[_streamId];\n        require(\n            // the time NOW should occur AFTER the withdrawTime\n            stream.withdrawTime < now,\n            \"Cannot withdraw before stream ends\"\n        );\n        // ! TODO uncomment this code\n        // make sure that his hasn't been marked as completed before\n        // require(\n        //     stream.isCompleted == false,\n        //     \"This transaction has already been completed\"\n        // );\n\n        streams[_streamId].isCompleted = true;\n        uint256 _mentorId = stream.mentorId;\n        uint256 _menteeId = stream.menteeId;\n        address payable _mentorAddress = people[_mentorId].personAddress;\n        address payable _menteeAddress = people[_menteeId].personAddress;\n\n        uint256 cost = stream.maxTimeLimit * stream.pricePerHour;\n\n        _mentorAddress.transfer(cost);\n        _menteeAddress.transfer(cost / 2);\n    }\n\n    function faucet(address payable target) public {\n        balance = address(this).balance;\n        target.transfer(10 ether);\n    }\n\n    function () external payable {}\n}\n\n/**\nNotes:\n1. Maybe an event for when a stream ends\n2. Uncomment the one withdrawal only check\n */",
  "sourcePath": "/home/anushka/Hackathon/EthIndia2.0/Ethindia-Legonidas/contracts/Streams.sol",
  "compiler": {
    "name": "solc",
    "version": "0.5.8+commit.23d335f2.Emscripten.clang"
  },
  "schemaVersion": "3.0.11",
  "updatedAt": "2019-08-04T02:59:13.145Z",
  "devdoc": {
    "methods": {}
  },
  "userdoc": {
    "methods": {}
  }
}