{
  "contractName": "Streams",
  "abi": [
    {
      "constant": true,
      "inputs": [
        {
          "name": "",
          "type": "uint256"
        }
      ],
      "name": "streams",
      "outputs": [
        {
          "name": "mentorId",
          "type": "uint256"
        },
        {
          "name": "menteeId",
          "type": "uint256"
        },
        {
          "name": "requestId",
          "type": "uint256"
        },
        {
          "name": "pricePerHour",
          "type": "uint256"
        },
        {
          "name": "maxTimeLimit",
          "type": "uint256"
        },
        {
          "name": "withdrawTime",
          "type": "uint256"
        },
        {
          "name": "isCompleted",
          "type": "bool"
        }
      ],
      "payable": false,
      "stateMutability": "view",
      "type": "function"
    },
    {
      "constant": true,
      "inputs": [],
      "name": "skillRequestId",
      "outputs": [
        {
          "name": "",
          "type": "uint256"
        }
      ],
      "payable": false,
      "stateMutability": "view",
      "type": "function"
    },
    {
      "constant": true,
      "inputs": [
        {
          "name": "",
          "type": "uint256"
        }
      ],
      "name": "skillRequests",
      "outputs": [
        {
          "name": "skill",
          "type": "string"
        },
        {
          "name": "description",
          "type": "string"
        },
        {
          "name": "pricePerHour",
          "type": "uint256"
        },
        {
          "name": "maxTimeLimit",
          "type": "uint256"
        },
        {
          "name": "creatorId",
          "type": "uint256"
        }
      ],
      "payable": false,
      "stateMutability": "view",
      "type": "function"
    },
    {
      "constant": true,
      "inputs": [
        {
          "name": "",
          "type": "uint256"
        }
      ],
      "name": "people",
      "outputs": [
        {
          "name": "personAddress",
          "type": "address"
        },
        {
          "name": "name",
          "type": "string"
        },
        {
          "name": "rating",
          "type": "uint8"
        }
      ],
      "payable": false,
      "stateMutability": "view",
      "type": "function"
    },
    {
      "constant": true,
      "inputs": [],
      "name": "uuid",
      "outputs": [
        {
          "name": "",
          "type": "uint256"
        }
      ],
      "payable": false,
      "stateMutability": "view",
      "type": "function"
    },
    {
      "constant": true,
      "inputs": [],
      "name": "streamId",
      "outputs": [
        {
          "name": "",
          "type": "uint256"
        }
      ],
      "payable": false,
      "stateMutability": "view",
      "type": "function"
    },
    {
      "anonymous": false,
      "inputs": [
        {
          "indexed": true,
          "name": "bountyId",
          "type": "uint256"
        }
      ],
      "name": "NewSkillRequest",
      "type": "event"
    },
    {
      "anonymous": false,
      "inputs": [
        {
          "indexed": true,
          "name": "personId",
          "type": "uint256"
        }
      ],
      "name": "NewPerson",
      "type": "event"
    },
    {
      "anonymous": false,
      "inputs": [
        {
          "indexed": true,
          "name": "newStreamId",
          "type": "uint256"
        }
      ],
      "name": "NewStream",
      "type": "event"
    },
    {
      "constant": false,
      "inputs": [
        {
          "name": "_name",
          "type": "string"
        }
      ],
      "name": "createNewPerson",
      "outputs": [],
      "payable": false,
      "stateMutability": "nonpayable",
      "type": "function"
    },
    {
      "constant": false,
      "inputs": [
        {
          "name": "_skill",
          "type": "string"
        },
        {
          "name": "_description",
          "type": "string"
        },
        {
          "name": "_pricePerHour",
          "type": "uint256"
        },
        {
          "name": "_maxTimeLimit",
          "type": "uint256"
        },
        {
          "name": "_creatorId",
          "type": "uint256"
        }
      ],
      "name": "createSkillRequest",
      "outputs": [],
      "payable": true,
      "stateMutability": "payable",
      "type": "function"
    },
    {
      "constant": false,
      "inputs": [
        {
          "name": "_skillRequestId",
          "type": "uint256"
        },
        {
          "name": "_mentorId",
          "type": "uint256"
        }
      ],
      "name": "acceptSkillRequest",
      "outputs": [],
      "payable": false,
      "stateMutability": "nonpayable",
      "type": "function"
    },
    {
      "constant": false,
      "inputs": [
        {
          "name": "_streamId",
          "type": "uint256"
        }
      ],
      "name": "completeStream",
      "outputs": [],
      "payable": true,
      "stateMutability": "payable",
      "type": "function"
    }
  ],
  "bytecode": "0x608060405234801561001057600080fd5b50611192806100206000396000f3fe6080604052600436106100915760003560e01c80639e7a13ad116100595780639e7a13ad14610369578063bb07e85d1461045d578063bb3e47e614610488578063c43e98da146105f8578063f4408e4b1461063d57610091565b8063241928b41461009657806364d60d91146100c45780636af801a414610141578063702a971b1461020957806374b5bf8e14610234575b600080fd5b6100c2600480360360208110156100ac57600080fd5b8101908080359060200190929190505050610668565b005b3480156100d057600080fd5b506100fd600480360360208110156100e757600080fd5b8101908080359060200190929190505050610813565b604051808881526020018781526020018681526020018581526020018481526020018381526020018215151515815260200197505050505050505060405180910390f35b34801561014d57600080fd5b506102076004803603602081101561016457600080fd5b810190808035906020019064010000000081111561018157600080fd5b82018360208201111561019357600080fd5b803590602001918460018302840111640100000000831117156101b557600080fd5b91908080601f016020809104026020016040519081016040528093929190818152602001838380828437600081840152601f19601f820116905080830192505050505050509192919290505050610862565b005b34801561021557600080fd5b5061021e6109d6565b6040518082815260200191505060405180910390f35b34801561024057600080fd5b5061026d6004803603602081101561025757600080fd5b81019080803590602001909291905050506109dc565b604051808060200180602001868152602001858152602001848152602001838103835288818151815260200191508051906020019080838360005b838110156102c35780820151818401526020810190506102a8565b50505050905090810190601f1680156102f05780820380516001836020036101000a031916815260200191505b50838103825287818151815260200191508051906020019080838360005b8381101561032957808201518184015260208101905061030e565b50505050905090810190601f1680156103565780820380516001836020036101000a031916815260200191505b5097505050505050505060405180910390f35b34801561037557600080fd5b506103a26004803603602081101561038c57600080fd5b8101908080359060200190929190505050610b42565b604051808473ffffffffffffffffffffffffffffffffffffffff1673ffffffffffffffffffffffffffffffffffffffff168152602001806020018360ff1660ff168152602001828103825284818151815260200191508051906020019080838360005b83811015610420578082015181840152602081019050610405565b50505050905090810190601f16801561044d5780820380516001836020036101000a031916815260200191505b5094505050505060405180910390f35b34801561046957600080fd5b50610472610c31565b6040518082815260200191505060405180910390f35b6105f6600480360360a081101561049e57600080fd5b81019080803590602001906401000000008111156104bb57600080fd5b8201836020820111156104cd57600080fd5b803590602001918460018302840111640100000000831117156104ef57600080fd5b91908080601f016020809104026020016040519081016040528093929190818152602001838380828437600081840152601f19601f8201169050808301925050505050505091929192908035906020019064010000000081111561055257600080fd5b82018360208201111561056457600080fd5b8035906020019184600183028401116401000000008311171561058657600080fd5b91908080601f016020809104026020016040519081016040528093929190818152602001838380828437600081840152601f19601f820116905080830192505050505050509192919290803590602001909291908035906020019092919080359060200190929190505050610c37565b005b34801561060457600080fd5b5061063b6004803603604081101561061b57600080fd5b810190808035906020019092919080359060200190929190505050610d7e565b005b34801561064957600080fd5b50610652610eb2565b6040518082815260200191505060405180910390f35b6000600560008381526020019081526020016000209050428160050154116106db576040517f08c379a00000000000000000000000000000000000000000000000000000000081526004018080602001828103825260298152602001806110e16029913960400191505060405180910390fd5b600015158160060160009054906101000a900460ff16151514610749576040517f08c379a000000000000000000000000000000000000000000000000000000000815260040180806020018281038252602b81526020018061113c602b913960400191505060405180910390fd5b60016005600084815260200190815260200160002060060160006101000a81548160ff02191690831515021790555060008160000154905060006001600083815260200190815260200160002060000160009054906101000a900473ffffffffffffffffffffffffffffffffffffffff1690508073ffffffffffffffffffffffffffffffffffffffff166108fc84600301548560040154029081150290604051600060405180830381858888f1935050505015801561080c573d6000803e3d6000fd5b5050505050565b60056020528060005260406000206000915090508060000154908060010154908060020154908060030154908060040154908060050154908060060160009054906101000a900460ff16905087565b61086a610eb8565b60405180608001604052803373ffffffffffffffffffffffffffffffffffffffff16815260200183815260200160036040519080825280602002602001820160405280156108cc57816020015b60608152602001906001900390816108b75790505b508152602001600360ff16815250905080600160008054815260200190815260200160002060008201518160000160006101000a81548173ffffffffffffffffffffffffffffffffffffffff021916908373ffffffffffffffffffffffffffffffffffffffff1602179055506020820151816001019080519060200190610954929190610ef9565b506040820151816002019080519060200190610971929190610f79565b5060608201518160030160006101000a81548160ff021916908360ff160217905550905050600080815480929190600101919050557f9a6f8cf2a41cba94986f43297806a0ff19da70cea144dabf9dd846b86dfa74e860405160405180910390a25050565b60025481565b6003602052806000526040600020600091509050806000018054600181600116156101000203166002900480601f016020809104026020016040519081016040528092919081815260200182805460018160011615610100020316600290048015610a885780601f10610a5d57610100808354040283529160200191610a88565b820191906000526020600020905b815481529060010190602001808311610a6b57829003601f168201915b505050505090806001018054600181600116156101000203166002900480601f016020809104026020016040519081016040528092919081815260200182805460018160011615610100020316600290048015610b265780601f10610afb57610100808354040283529160200191610b26565b820191906000526020600020905b815481529060010190602001808311610b0957829003601f168201915b5050505050908060020154908060030154908060040154905085565b60016020528060005260406000206000915090508060000160009054906101000a900473ffffffffffffffffffffffffffffffffffffffff1690806001018054600181600116156101000203166002900480601f016020809104026020016040519081016040528092919081815260200182805460018160011615610100020316600290048015610c145780601f10610be957610100808354040283529160200191610c14565b820191906000526020600020905b815481529060010190602001808311610bf757829003601f168201915b5050505050908060030160009054906101000a900460ff16905083565b60005481565b60008284029050803414610c96576040517f08c379a000000000000000000000000000000000000000000000000000000000815260040180806020018281038252603281526020018061110a6032913960400191505060405180910390fd5b610c9e610fd9565b6040518060a00160405280888152602001878152602001868152602001858152602001848152509050806003600060025481526020019081526020016000206000820151816000019080519060200190610cf9929190610ef9565b506020820151816001019080519060200190610d16929190610ef9565b5060408201518160020155606082015181600301556080820151816004015590505060026000815480929190600101919050557f491ac035c198a1d7ed99c004eaf061f1098e73ac77e28ceb404fa12b9f69e2b360405160405180910390a250505050505050565b6000600360008481526020019081526020016000209050600081600401549050600082600201549050600083600301549050610db8611008565b6040518060e001604052808781526020018581526020018881526020018481526020018381526020016201518084024201815260200160001515815250905080600560006004548152602001908152602001600020600082015181600001556020820151816001015560408201518160020155606082015181600301556080820151816004015560a0820151816005015560c08201518160060160006101000a81548160ff02191690831515021790555090505060046000815480929190600101919050557fcc574989141aace13d3c0735bdabcb47effa3bbf4e95381d87a7d0b9eb71105e60405160405180910390a250505050505050565b60045481565b6040518060800160405280600073ffffffffffffffffffffffffffffffffffffffff1681526020016060815260200160608152602001600060ff1681525090565b828054600181600116156101000203166002900490600052602060002090601f016020900481019282601f10610f3a57805160ff1916838001178555610f68565b82800160010185558215610f68579182015b82811115610f67578251825591602001919060010190610f4c565b5b509050610f759190611047565b5090565b828054828255906000526020600020908101928215610fc8579160200282015b82811115610fc7578251829080519060200190610fb7929190610ef9565b5091602001919060010190610f99565b5b509050610fd5919061106c565b5090565b6040518060a0016040528060608152602001606081526020016000815260200160008152602001600081525090565b6040518060e001604052806000815260200160008152602001600081526020016000815260200160008152602001600081526020016000151581525090565b61106991905b8082111561106557600081600090555060010161104d565b5090565b90565b61109591905b8082111561109157600081816110889190611098565b50600101611072565b5090565b90565b50805460018160011615610100020316600290046000825580601f106110be57506110dd565b601f0160209004906000526020600020908101906110dc9190611047565b5b5056fe43616e6e6f74207769746864726177206265666f72652073747265616d20656e6473202d206d6f7265506c6561736520636865636b2069662073756666696369656e742066756e647320617265206265696e67206c6f636b65642e54686973207472616e73616374696f6e2068617320616c7265616479206265656e20636f6d706c65746564a165627a7a72305820157e95da93f8e38d4c1c1ef03fda959b915a16e3680222aae8de3663221a55810029",
  "source": "pragma solidity >=0.4.21 <0.6.0;\n\ncontract Streams {\n    //unique user id\n    uint256 public uuid;\n\n    //mapping of uuid to Person object\n    mapping(uint256 => Person) public people;\n\n    //struct representing a Person object\n    struct Person {\n        address payable personAddress;\n        string name;\n        string[] skills;\n        uint8 rating;\n    }\n\n    //unique skill request id\n    uint256 public skillRequestId;\n\n    //mapping of skillRequestId to SkillRequest object\n    mapping(uint256 => SkillRequest) public skillRequests;\n\n    // ! TODO rename to MentorRequest\n    //a bounty created by a consumer on the platform\n    struct SkillRequest {\n        string skill;\n        string description;\n        uint256 pricePerHour;\n        uint256 maxTimeLimit;\n        uint256 creatorId;\n    }\n\n    // unique stream ids\n    uint256 public streamId;\n\n    // mapping of streamId to Stream object\n    mapping(uint256 => Stream) public streams;\n\n    /**\n    People in theory won't be able to misuse the platform cuz ETH is never credited back to them. So a mentee with malicious intent has no benefit from withholding completion\n     */\n\n    //struct representing a Stream on the platform\n    struct Stream {\n        uint256 mentorId;\n        uint256 menteeId;\n        uint256 requestId;\n        uint256 pricePerHour;\n        uint256 maxTimeLimit;\n        uint256 withdrawTime;\n        bool isCompleted;\n    }\n\n    //event emitted when a new skill request is made\n    event NewSkillRequest (\n        uint256 indexed bountyId\n    );\n\n    event NewPerson (\n        uint256 indexed personId\n    );\n\n    event NewStream (\n        uint256 indexed newStreamId\n    );\n\n    // ! TODO augment to integrate skills\n    function createNewPerson(string memory _name) public {\n        Person memory newPerson = Person({\n            personAddress: msg.sender,\n            name: _name,\n            skills: new string[](3),\n            rating: uint8(3)\n        });\n\n        people[uuid] = newPerson;\n\n        emit NewPerson(uuid++);\n    }\n\n    //function for creating a skill request on the network\n    function createSkillRequest(string memory _skill, string memory _description, uint256 _pricePerHour, uint256 _maxTimeLimit, uint256 _creatorId) public payable {\n\n        //verify that requester has enough eth\n        uint256 cost = _pricePerHour * _maxTimeLimit;\n        // ! TODO see if you can optimise this computation or get it off the chain\n        require(\n             msg.value == cost,\n            // msg.value == cost + ( 100 * cost ) / 1000,\n            // msg.value == cost + 0.01 * cost,\n            \"Please check if sufficient funds are being locked.\"\n        );\n\n        //creating a bounty object\n        SkillRequest memory skillRequest = SkillRequest({\n            skill: _skill,\n            description: _description,\n            pricePerHour: _pricePerHour,\n            maxTimeLimit: _maxTimeLimit,\n            creatorId: _creatorId\n        });\n\n        //persist Bounty to the blockchain\n        skillRequests[skillRequestId] = skillRequest;\n\n        //emit an event to notify the clients\n        emit NewSkillRequest(skillRequestId++);\n    }\n\n    //function for accepting a bounty on the network\n    function acceptSkillRequest(uint256 _skillRequestId, uint256 _mentorId) public {\n        //retreiving skill request object from the blockchain\n        SkillRequest storage skillRequest = skillRequests[_skillRequestId];\n        uint256 _menteeId = skillRequest.creatorId;\n\n        uint256 _pricePerHour = skillRequest.pricePerHour;\n        uint256 _maxTimeLimit = skillRequest.maxTimeLimit;\n\n        Stream memory newStream = Stream({\n            mentorId: _mentorId,\n            menteeId: _menteeId,\n            requestId: _skillRequestId,\n            pricePerHour: _pricePerHour,\n            maxTimeLimit: _maxTimeLimit,\n            // set the time after which the withdrawal of the fees is valid\n            withdrawTime: now + _maxTimeLimit * 86400,\n            isCompleted: false\n        });\n\n        // persist stream to blockchain\n        streams[streamId] = newStream;\n\n        emit NewStream(streamId++);\n    }\n\n    function completeStream(uint256 _streamId) public payable {\n        // make sure that enough time has passed before the funds are debited\n        Stream storage stream = streams[_streamId];\n        require(\n            stream.withdrawTime > now,\n            \"Cannot withdraw before stream ends - more\"\n        );\n        // make sure that his hasn't been marked as completed before\n        require(\n            stream.isCompleted == false,\n            \"This transaction has already been completed\"\n        );\n        streams[_streamId].isCompleted = true;\n        uint256 _mentorId = stream.mentorId;\n        address payable _mentorAddress = people[_mentorId].personAddress;\n\n        _mentorAddress.transfer(stream.maxTimeLimit * stream.pricePerHour);\n\n    }\n}",
  "sourcePath": "/Users/ajmal/Desktop/playground/Ethindia-Legonidas/contracts/Streams.sol",
  "compiler": {
    "name": "solc",
    "version": "0.5.8+commit.23d335f2.Emscripten.clang"
  },
  "schemaVersion": "3.0.11",
  "updatedAt": "2019-08-03T09:20:10.081Z",
  "devdoc": {
    "methods": {}
  },
  "userdoc": {
    "methods": {}
  }
}