{
  "contractName": "Streams",
  "abi": [
    {
      "constant": true,
      "inputs": [
        {
          "name": "",
          "type": "uint256"
        }
      ],
      "name": "streams",
      "outputs": [
        {
          "name": "mentorId",
          "type": "uint256"
        },
        {
          "name": "menteeId",
          "type": "uint256"
        },
        {
          "name": "requestId",
          "type": "uint256"
        },
        {
          "name": "pricePerHour",
          "type": "uint256"
        },
        {
          "name": "maxTimeLimit",
          "type": "uint256"
        },
        {
          "name": "withdrawTime",
          "type": "uint256"
        },
        {
          "name": "isCompleted",
          "type": "bool"
        }
      ],
      "payable": false,
      "stateMutability": "view",
      "type": "function"
    },
    {
      "constant": true,
      "inputs": [],
      "name": "skillRequestId",
      "outputs": [
        {
          "name": "",
          "type": "uint256"
        }
      ],
      "payable": false,
      "stateMutability": "view",
      "type": "function"
    },
    {
      "constant": true,
      "inputs": [
        {
          "name": "",
          "type": "uint256"
        }
      ],
      "name": "skillRequests",
      "outputs": [
        {
          "name": "skill",
          "type": "string"
        },
        {
          "name": "description",
          "type": "string"
        },
        {
          "name": "pricePerHour",
          "type": "uint256"
        },
        {
          "name": "maxTimeLimit",
          "type": "uint256"
        },
        {
          "name": "creatorId",
          "type": "uint256"
        }
      ],
      "payable": false,
      "stateMutability": "view",
      "type": "function"
    },
    {
      "constant": true,
      "inputs": [
        {
          "name": "",
          "type": "uint256"
        }
      ],
      "name": "people",
      "outputs": [
        {
          "name": "personAddress",
          "type": "address"
        },
        {
          "name": "name",
          "type": "string"
        },
        {
          "name": "rating",
          "type": "uint8"
        }
      ],
      "payable": false,
      "stateMutability": "view",
      "type": "function"
    },
    {
      "constant": true,
      "inputs": [],
      "name": "balance",
      "outputs": [
        {
          "name": "",
          "type": "uint256"
        }
      ],
      "payable": false,
      "stateMutability": "view",
      "type": "function"
    },
    {
      "constant": true,
      "inputs": [],
      "name": "uuid",
      "outputs": [
        {
          "name": "",
          "type": "uint256"
        }
      ],
      "payable": false,
      "stateMutability": "view",
      "type": "function"
    },
    {
      "constant": true,
      "inputs": [],
      "name": "streamId",
      "outputs": [
        {
          "name": "",
          "type": "uint256"
        }
      ],
      "payable": false,
      "stateMutability": "view",
      "type": "function"
    },
    {
      "payable": true,
      "stateMutability": "payable",
      "type": "fallback"
    },
    {
      "anonymous": false,
      "inputs": [
        {
          "indexed": true,
          "name": "bountyId",
          "type": "uint256"
        }
      ],
      "name": "NewSkillRequest",
      "type": "event"
    },
    {
      "anonymous": false,
      "inputs": [
        {
          "indexed": true,
          "name": "personId",
          "type": "uint256"
        }
      ],
      "name": "NewPerson",
      "type": "event"
    },
    {
      "anonymous": false,
      "inputs": [
        {
          "indexed": true,
          "name": "newStreamId",
          "type": "uint256"
        }
      ],
      "name": "NewStream",
      "type": "event"
    },
    {
      "constant": false,
      "inputs": [
        {
          "name": "_name",
          "type": "string"
        }
      ],
      "name": "createNewPerson",
      "outputs": [],
      "payable": false,
      "stateMutability": "nonpayable",
      "type": "function"
    },
    {
      "constant": false,
      "inputs": [
        {
          "name": "_skill",
          "type": "string"
        },
        {
          "name": "_description",
          "type": "string"
        },
        {
          "name": "_pricePerHour",
          "type": "uint256"
        },
        {
          "name": "_maxTimeLimit",
          "type": "uint256"
        },
        {
          "name": "_creatorId",
          "type": "uint256"
        }
      ],
      "name": "createSkillRequest",
      "outputs": [],
      "payable": true,
      "stateMutability": "payable",
      "type": "function"
    },
    {
      "constant": false,
      "inputs": [
        {
          "name": "_skillRequestId",
          "type": "uint256"
        },
        {
          "name": "_mentorId",
          "type": "uint256"
        }
      ],
      "name": "acceptSkillRequest",
      "outputs": [],
      "payable": false,
      "stateMutability": "nonpayable",
      "type": "function"
    },
    {
      "constant": false,
      "inputs": [
        {
          "name": "_streamId",
          "type": "uint256"
        }
      ],
      "name": "completeStream",
      "outputs": [],
      "payable": false,
      "stateMutability": "nonpayable",
      "type": "function"
    },
    {
      "constant": false,
      "inputs": [
        {
          "name": "_streamId",
          "type": "uint256"
        }
      ],
      "name": "completeStreamWithCollateralPayout",
      "outputs": [],
      "payable": false,
      "stateMutability": "nonpayable",
      "type": "function"
    },
    {
      "constant": false,
      "inputs": [
        {
          "name": "target",
          "type": "address"
        }
      ],
      "name": "faucet",
      "outputs": [],
      "payable": false,
      "stateMutability": "nonpayable",
      "type": "function"
    }
  ],
  "bytecode": "0x608060405234801561001057600080fd5b5061144f806100206000396000f3fe6080604052600436106100c25760003560e01c80639e7a13ad1161007f578063bb07e85d11610059578063bb07e85d1461054f578063bb3e47e61461057a578063c43e98da146106ea578063f4408e4b1461072f576100c2565b80639e7a13ad146103df578063b69ef8a8146104d3578063b86d1d63146104fe576100c2565b80630f3e3171146100c4578063241928b4146100ff57806364d60d911461013a5780636af801a4146101b7578063702a971b1461027f57806374b5bf8e146102aa575b005b3480156100d057600080fd5b506100fd600480360360208110156100e757600080fd5b810190808035906020019092919050505061075a565b005b34801561010b57600080fd5b506101386004803603602081101561012257600080fd5b8101908080359060200190929190505050610934565b005b34801561014657600080fd5b506101736004803603602081101561015d57600080fd5b8101908080359060200190929190505050610a77565b604051808881526020018781526020018681526020018581526020018481526020018381526020018215151515815260200197505050505050505060405180910390f35b3480156101c357600080fd5b5061027d600480360360208110156101da57600080fd5b81019080803590602001906401000000008111156101f757600080fd5b82018360208201111561020957600080fd5b8035906020019184600183028401116401000000008311171561022b57600080fd5b91908080601f016020809104026020016040519081016040528093929190818152602001838380828437600081840152601f19601f820116905080830192505050505050509192919290505050610ac6565b005b34801561028b57600080fd5b50610294610c3c565b6040518082815260200191505060405180910390f35b3480156102b657600080fd5b506102e3600480360360208110156102cd57600080fd5b8101908080359060200190929190505050610c42565b604051808060200180602001868152602001858152602001848152602001838103835288818151815260200191508051906020019080838360005b8381101561033957808201518184015260208101905061031e565b50505050905090810190601f1680156103665780820380516001836020036101000a031916815260200191505b50838103825287818151815260200191508051906020019080838360005b8381101561039f578082015181840152602081019050610384565b50505050905090810190601f1680156103cc5780820380516001836020036101000a031916815260200191505b5097505050505050505060405180910390f35b3480156103eb57600080fd5b506104186004803603602081101561040257600080fd5b8101908080359060200190929190505050610da8565b604051808473ffffffffffffffffffffffffffffffffffffffff1673ffffffffffffffffffffffffffffffffffffffff168152602001806020018360ff1660ff168152602001828103825284818151815260200191508051906020019080838360005b8381101561049657808201518184015260208101905061047b565b50505050905090810190601f1680156104c35780820380516001836020036101000a031916815260200191505b5094505050505060405180910390f35b3480156104df57600080fd5b506104e8610e97565b6040518082815260200191505060405180910390f35b34801561050a57600080fd5b5061054d6004803603602081101561052157600080fd5b81019080803573ffffffffffffffffffffffffffffffffffffffff169060200190929190505050610e9d565b005b34801561055b57600080fd5b50610564610f0d565b6040518082815260200191505060405180910390f35b6106e8600480360360a081101561059057600080fd5b81019080803590602001906401000000008111156105ad57600080fd5b8201836020820111156105bf57600080fd5b803590602001918460018302840111640100000000831117156105e157600080fd5b91908080601f016020809104026020016040519081016040528093929190818152602001838380828437600081840152601f19601f8201169050808301925050505050505091929192908035906020019064010000000081111561064457600080fd5b82018360208201111561065657600080fd5b8035906020019184600183028401116401000000008311171561067857600080fd5b91908080601f016020809104026020016040519081016040528093929190818152602001838380828437600081840152601f19601f820116905080830192505050505050509192919290803590602001909291908035906020019092919080359060200190929190505050610f13565b005b3480156106f657600080fd5b5061072d6004803603604081101561070d57600080fd5b810190808035906020019092919080359060200190929190505050611070565b005b34801561073b57600080fd5b506107446111a2565b6040518082815260200191505060405180910390f35b6000600660008381526020019081526020016000209050428160050154106107cd576040517f08c379a00000000000000000000000000000000000000000000000000000000081526004018080602001828103825260228152602001806113d16022913960400191505060405180910390fd5b60016006600084815260200190815260200160002060060160006101000a81548160ff02191690831515021790555060008160000154905060008260010154905060006002600084815260200190815260200160002060000160009054906101000a900473ffffffffffffffffffffffffffffffffffffffff16905060006002600084815260200190815260200160002060000160009054906101000a900473ffffffffffffffffffffffffffffffffffffffff1690506000856003015486600401540290508273ffffffffffffffffffffffffffffffffffffffff166108fc829081150290604051600060405180830381858888f193505050501580156108d9573d6000803e3d6000fd5b508173ffffffffffffffffffffffffffffffffffffffff166108fc600283816108fe57fe5b049081150290604051600060405180830381858888f1935050505015801561092a573d6000803e3d6000fd5b5050505050505050565b6000600660008381526020019081526020016000209050428160050154106109a7576040517f08c379a00000000000000000000000000000000000000000000000000000000081526004018080602001828103825260228152602001806113d16022913960400191505060405180910390fd5b60016006600084815260200190815260200160002060060160006101000a81548160ff02191690831515021790555060008160000154905060006002600083815260200190815260200160002060000160009054906101000a900473ffffffffffffffffffffffffffffffffffffffff1690506000836003015484600401540290508173ffffffffffffffffffffffffffffffffffffffff166108fc829081150290604051600060405180830381858888f19350505050158015610a6f573d6000803e3d6000fd5b505050505050565b60066020528060005260406000206000915090508060000154908060010154908060020154908060030154908060040154908060050154908060060160009054906101000a900460ff16905087565b610ace6111a8565b60405180608001604052803373ffffffffffffffffffffffffffffffffffffffff1681526020018381526020016003604051908082528060200260200182016040528015610b3057816020015b6060815260200190600190039081610b1b5790505b508152602001600360ff1681525090508060026000600154815260200190815260200160002060008201518160000160006101000a81548173ffffffffffffffffffffffffffffffffffffffff021916908373ffffffffffffffffffffffffffffffffffffffff1602179055506020820151816001019080519060200190610bb99291906111e9565b506040820151816002019080519060200190610bd6929190611269565b5060608201518160030160006101000a81548160ff021916908360ff16021790555090505060016000815480929190600101919050557f9a6f8cf2a41cba94986f43297806a0ff19da70cea144dabf9dd846b86dfa74e860405160405180910390a25050565b60035481565b6004602052806000526040600020600091509050806000018054600181600116156101000203166002900480601f016020809104026020016040519081016040528092919081815260200182805460018160011615610100020316600290048015610cee5780601f10610cc357610100808354040283529160200191610cee565b820191906000526020600020905b815481529060010190602001808311610cd157829003601f168201915b505050505090806001018054600181600116156101000203166002900480601f016020809104026020016040519081016040528092919081815260200182805460018160011615610100020316600290048015610d8c5780601f10610d6157610100808354040283529160200191610d8c565b820191906000526020600020905b815481529060010190602001808311610d6f57829003601f168201915b5050505050908060020154908060030154908060040154905085565b60026020528060005260406000206000915090508060000160009054906101000a900473ffffffffffffffffffffffffffffffffffffffff1690806001018054600181600116156101000203166002900480601f016020809104026020016040519081016040528092919081815260200182805460018160011615610100020316600290048015610e7a5780601f10610e4f57610100808354040283529160200191610e7a565b820191906000526020600020905b815481529060010190602001808311610e5d57829003601f168201915b5050505050908060030160009054906101000a900460ff16905083565b60005481565b3073ffffffffffffffffffffffffffffffffffffffff16316000819055508073ffffffffffffffffffffffffffffffffffffffff166108fc678ac7230489e800009081150290604051600060405180830381858888f19350505050158015610f09573d6000803e3d6000fd5b5050565b60015481565b60008284029050600060648260330281610f2957fe5b048201905080341015610f87576040517f08c379a00000000000000000000000000000000000000000000000000000000081526004018080602001828103825260318152602001806113f36031913960400191505060405180910390fd5b610f8f6112c9565b6040518060a00160405280898152602001888152602001878152602001868152602001858152509050806004600060035481526020019081526020016000206000820151816000019080519060200190610fea9291906111e9565b5060208201518160010190805190602001906110079291906111e9565b5060408201518160020155606082015181600301556080820151816004015590505060036000815480929190600101919050557f491ac035c198a1d7ed99c004eaf061f1098e73ac77e28ceb404fa12b9f69e2b360405160405180910390a25050505050505050565b60006004600084815260200190815260200160002090506000816004015490506000826002015490506000836003015490506110aa6112f8565b6040518060e00160405280878152602001858152602001888152602001848152602001838152602001600284024201815260200160001515815250905080600660006005548152602001908152602001600020600082015181600001556020820151816001015560408201518160020155606082015181600301556080820151816004015560a0820151816005015560c08201518160060160006101000a81548160ff02191690831515021790555090505060056000815480929190600101919050557fcc574989141aace13d3c0735bdabcb47effa3bbf4e95381d87a7d0b9eb71105e60405160405180910390a250505050505050565b60055481565b6040518060800160405280600073ffffffffffffffffffffffffffffffffffffffff1681526020016060815260200160608152602001600060ff1681525090565b828054600181600116156101000203166002900490600052602060002090601f016020900481019282601f1061122a57805160ff1916838001178555611258565b82800160010185558215611258579182015b8281111561125757825182559160200191906001019061123c565b5b5090506112659190611337565b5090565b8280548282559060005260206000209081019282156112b8579160200282015b828111156112b75782518290805190602001906112a79291906111e9565b5091602001919060010190611289565b5b5090506112c5919061135c565b5090565b6040518060a0016040528060608152602001606081526020016000815260200160008152602001600081525090565b6040518060e001604052806000815260200160008152602001600081526020016000815260200160008152602001600081526020016000151581525090565b61135991905b8082111561135557600081600090555060010161133d565b5090565b90565b61138591905b8082111561138157600081816113789190611388565b50600101611362565b5090565b90565b50805460018160011615610100020316600290046000825580601f106113ae57506113cd565b601f0160209004906000526020600020908101906113cc9190611337565b5b5056fe43616e6e6f74207769746864726177206265666f72652073747265616d20656e6473506c6561736520636865636b2069662073756666696369656e742066756e647320617265206265696e67206c6f636b6564a165627a7a72305820b0907b89664f10b4ad6cf5bf036944e93b414600229dd2a4b62f28812e4a6e9a0029",
  "source": "pragma solidity >= 0.5.0;\n\ncontract Streams {\n    uint256 public balance;\n\n    //unique user id\n    uint256 public uuid;\n\n    //mapping of uuid to Person object\n    mapping(uint256 => Person) public people;\n\n    //struct representing a Person object\n    struct Person {\n        address payable personAddress;\n        string name;\n        string[] skills;\n        uint8 rating;\n    }\n\n    //unique skill request id\n    uint256 public skillRequestId;\n\n    //mapping of skillRequestId to SkillRequest object\n    mapping(uint256 => SkillRequest) public skillRequests;\n\n    // ! TODO rename to MentorRequest\n    //a bounty created by a consumer on the platform\n    struct SkillRequest {\n        string skill;\n        string description;\n        uint256 pricePerHour;\n        uint256 maxTimeLimit;\n        uint256 creatorId;\n    }\n\n    // unique stream ids\n    uint256 public streamId;\n\n    // mapping of streamId to Stream object\n    mapping(uint256 => Stream) public streams;\n\n    /**\n    People in theory won't be able to misuse the platform cuz ETH is never credited back to them. So a mentee with malicious intent has no benefit from withholding completion\n     */\n\n    //struct representing a Stream on the platform\n    struct Stream {\n        uint256 mentorId;\n        uint256 menteeId;\n        uint256 requestId;\n        uint256 pricePerHour;\n        uint256 maxTimeLimit;\n        uint256 withdrawTime;\n        bool isCompleted;\n    }\n\n    //event emitted when a new skill request is made\n    event NewSkillRequest (\n        uint256 indexed bountyId\n    );\n\n    event NewPerson (\n        uint256 indexed personId\n    );\n\n    event NewStream (\n        uint256 indexed newStreamId\n    );\n\n    // ! TODO augment to integrate skills\n    function createNewPerson(string memory _name) public {\n        Person memory newPerson = Person({\n            personAddress: msg.sender,\n            name: _name,\n            skills: new string[](3),\n            rating: uint8(3)\n        });\n\n        people[uuid] = newPerson;\n\n        emit NewPerson(uuid++);\n    }\n\n    //function for creating a skill request on the network\n    function createSkillRequest(string memory _skill, string memory _description, uint256 _pricePerHour, uint256 _maxTimeLimit, uint256 _creatorId) public payable {\n\n        //verify that requester has enough eth\n        uint256 cost = _pricePerHour * _maxTimeLimit;\n        // ! TODO see if you can optimise this computation or get it off the chain\n        // uint256 minValue = cost + (( 100 * cost ) / 1000);\n        uint256 minValue = cost + ((51 * cost) / 100);\n        require(\n            // our cut - 1%, collateral - 50%\n            msg.value >= minValue,\n            \"Please check if sufficient funds are being locked\"\n        );\n\n        //creating a bounty object\n        SkillRequest memory skillRequest = SkillRequest({\n            skill: _skill,\n            description: _description,\n            pricePerHour: _pricePerHour,\n            maxTimeLimit: _maxTimeLimit,\n            creatorId: _creatorId\n        });\n\n        //persist Bounty to the blockchain\n        skillRequests[skillRequestId] = skillRequest;\n\n        //emit an event to notify the clients\n        emit NewSkillRequest(skillRequestId++);\n    }\n\n    //function for accepting a bounty on the network\n    function acceptSkillRequest(uint256 _skillRequestId, uint256 _mentorId) public {\n        //retreiving skill request object from the blockchain\n        SkillRequest storage skillRequest = skillRequests[_skillRequestId];\n        uint256 _menteeId = skillRequest.creatorId;\n\n        uint256 _pricePerHour = skillRequest.pricePerHour;\n        uint256 _maxTimeLimit = skillRequest.maxTimeLimit;\n\n        Stream memory newStream = Stream({\n            mentorId: _mentorId,\n            menteeId: _menteeId,\n            requestId: _skillRequestId,\n            pricePerHour: _pricePerHour,\n            maxTimeLimit: _maxTimeLimit,\n            // set the time after which the withdrawal of the fees is valid\n            // ! TODO Uncomment this\n            // withdrawTime: now + _maxTimeLimit * 3600,\n            withdrawTime: now + _maxTimeLimit * 2,\n            isCompleted: false\n        });\n\n        // persist stream to blockchain\n        streams[streamId] = newStream;\n\n        emit NewStream(streamId++);\n    }\n\n    function completeStream(uint256 _streamId) public {\n        // make sure that enough time has passed before the funds are debited\n        Stream storage stream = streams[_streamId];\n        require(\n            // the time NOW should occur AFTER the withdrawTime\n            stream.withdrawTime < now,\n            \"Cannot withdraw before stream ends\"\n        );\n        // make sure that his hasn't been marked as completed before\n        // require(\n        //     stream.isCompleted == false,\n        //     \"This transaction has already been completed\"\n        // );\n        streams[_streamId].isCompleted = true;\n        uint256 _mentorId = stream.mentorId;\n        address payable _mentorAddress = people[_mentorId].personAddress;\n\n        uint256 cost = stream.maxTimeLimit * stream.pricePerHour;\n\n        _mentorAddress.transfer(cost);\n    }\n\n    function completeStreamWithCollateralPayout(uint256 _streamId) public {\n        Stream storage stream = streams[_streamId];\n        require(\n            // the time NOW should occur AFTER the withdrawTime\n            stream.withdrawTime < now,\n            \"Cannot withdraw before stream ends\"\n        );\n        // make sure that his hasn't been marked as completed before\n        // require(\n        //     stream.isCompleted == false,\n        //     \"This transaction has already been completed\"\n        // );\n\n        streams[_streamId].isCompleted = true;\n        uint256 _mentorId = stream.mentorId;\n        uint256 _menteeId = stream.menteeId;\n        address payable _mentorAddress = people[_mentorId].personAddress;\n        address payable _menteeAddress = people[_menteeId].personAddress;\n\n        uint256 cost = stream.maxTimeLimit * stream.pricePerHour;\n\n        _mentorAddress.transfer(cost);\n        _menteeAddress.transfer(cost / 2);\n    }\n\n    function faucet(address payable target) public {\n        balance = address(this).balance;\n        target.transfer(10 ether);\n    }\n\n    function () external payable {}\n}",
  "sourcePath": "/Users/ajmal/Desktop/playground/Ethindia-Legonidas/contracts/Streams.sol",
  "compiler": {
    "name": "solc",
    "version": "0.5.8+commit.23d335f2.Emscripten.clang"
  },
  "schemaVersion": "3.0.11",
  "updatedAt": "2019-08-03T20:23:38.434Z",
  "devdoc": {
    "methods": {}
  },
  "userdoc": {
    "methods": {}
  }
}